:020000040800F2
:10000000280A002029020008B7240008052000085B
:10001000B52400081F040008512E0008000000004D
:10002000000000000000000000000000D9240008CB
:10003000DD04000800000000B9240008F9250008CC
:10004000430200084302000843020008430200087C
:10005000430200084302000843020008430200086C
:10006000430200084302000843020008430200085C
:10007000430200084302000843020008430200084C
:10008000430200084302000843020008430200083C
:10009000430200084302000843020008430200082C
:1000A0004302000843020008430200089D2600089E
:1000B000A9260008B5260008C1260008430200084A
:1000C00043020008430200084302000843020008FC
:1000D00043020008430200084302000843020008EC
:1000E00043020008430200084302000843020008DC
:1000F00043020008430200084302000843020008CC
:100100004302000843020008CD260008430200080D
:100110004302000843020008D926000843020008F1
:1001200043020008210400084302000843020008BB
:10013000430200084302000843020008430200088B
:10014000430200084302000843020008430200087B
:10015000430200082D04000843020008792D00081E
:10016000430200084302000843020008430200085B
:100170004302000843020008430200080000000098
:10018000430200084302000800F002F800F03CF8C7
:100190000AA090E8000C82448344AAF10107DA45E2
:1001A00001D100F031F8AFF2090EBAE80F0013F0F8
:1001B000010F18BFFB1A43F001031847903E0000DF
:1001C000B03E0000103A24BF78C878C1FAD8520770
:1001D00024BF30C830C144BF04680C6070470000C1
:1001E0000023002400250026103A28BF78C1FBD840
:1001F000520728BF30C148BF0B6070471FB503F0DE
:10020000E5FD1FBD10B510BD00F0CFF81146FFF79A
:10021000F5FF02F05BFF00F0EDF803B4FFF7F2FF2B
:1002200003BC00F0F5F80000094880470948004782
:10023000FEE7FEE7FEE7FEE7FEE7FEE7FEE7FEE796
:10024000FEE7FEE704480549054A064B70470000F3
:100250008D2600088901000828040020280A0020B3
:10026000280600202806002053EA020C00F06980CE
:100270002DE9F04B4FF00006002B1FBFB3FA83F5BA
:1002800003FA05F424FA05F65E4012BF1643B2FAEB
:1002900082F502FA05F4C5F120051EBF22FA05FC1D
:1002A00044EA0C04203556EA044C4FEA144418BFC3
:1002B000641C4FF000084FF00009904271EB030CF2
:1002C00039D3002919BFB1FA81F701FA07F6B0FA5C
:1002D00080F700FA07F6C7F120071EBF20FA07FCD7
:1002E00046EA0C062037B6FBF4FCA7EB0507103FE7
:1002F00007F01F0BCBF120060CFA0BFB2CFA06F6CD
:1003000044BFB3460026202FA4BF5E464FF0000B2B
:100310005BEA060C08BF4FF0010B19EB0B09ABFBB6
:10032000027C48EB0608C01B06FB02CC0BFB03CC8F
:1003300071EB0C01C1E70B46024641464846BDE859
:10034000F08B13B54FF000004FF00001AFF30080C9
:10035000BDE81C4070474FF0000200B513469446BC
:100360009646203922BFA0E80C50A0E80C50B1F10D
:100370002001BFF4F7AF090728BFA0E80C5048BF21
:100380000CC05DF804EB890028BF40F8042B08BFBF
:10039000704748BF20F8022B11F0804F18BF00F8BB
:1003A000012B7047704770477047754600F02CF876
:1003B000AE4605006946534620F00700854618B052
:1003C00020B5FFF73FFFBDE820404FF000064FF09B
:1003D00000074FF000084FF0000B21F00701AC467A
:1003E000ACE8C009ACE8C009ACE8C009ACE8C00999
:1003F0008D46704710B50446AFF300802046BDE837
:100400001040FFF70ABF000000487047C8030020F3
:1004100001491820ABBEFEE7260002007047FEE748
:10042000014800F0F5B800007C020020014800F00F
:10043000EFB80000DC02002001681823CAB2103AAD
:10044000B2FBF3F2054B6FF30901032A9B5CC36512
:1004500000D9091D81650846704700002C4000083E
:1004600010B5014600208B698A6A4FF0C07453B101
:10047000B3F5005F15D072B1012A0CD0022A0AD060
:10048000032A09D104E01AB1012A06D0022A03D1B5
:10049000C96AC90100D5012010BDC96AA142FAD0BC
:1004A00010BD002AF7D0012AF2D0022AF3D0032A85
:1004B000F3D010BD30B50468256825F4802525608B
:1004C000046863608368402B036803D09960006808
:1004D000C26030BD9A600068C16030BD704772B6BE
:1004E000FEE7000010B51B4C70EEC04A94ED020A06
:1004F000B8EEC00A34EEC05A94ED010AB8EEC00A54
:10050000F0EE450A30EE240ABDEEC00A84ED010A81
:10051000BDEEC50A84ED020AB0EE640A02F0AAFC40
:1005200004F10C00D0ED001A31EE800AD0ED021A71
:1005300020EE240A31EE811A01EE050A90ED011A2F
:1005400031EE201AD4ED010AF8EEE00A01EE200A9D
:1005500010BD0000000000202DE9F0410446876D29
:1005600000F0C6FA064694F835000025022806D0A9
:100570008020606584F834500120BDE8F081206857
:10058000016821F0160101602068416921F08001B5
:100590004161206C08B9A06C20B12068016821F08D
:1005A000080101602068016821F0010101600CE090
:1005B00000F09EFA801B052807D9202060650320E3
:1005C00084F8350084F83450D7E720680068C00705
:1005D000EED194F85C103F208840B860012084F888
:1005E000350084F834500020C7E790F83510022910
:1005F00003D08021416501207047052180F8351026
:100600000068016821F001010160002070470000CE
:100610002DE9F84304464FF00009CDF800906348F7
:100620004FF41651A56D0068B0FBF1F72E6894F8F1
:100630005C10082000FA01F131420FD021680A68ED
:1006400052070BD50A6822F004020A6094F85C1085
:100650008840A860606D40F00100606594F85C100F
:100660004FF0010808FA01F0304208D021684969CA
:10067000090604D5A860606D40F00200606594F83A
:100680005C1004208840304208D02168096889073E
:1006900004D5A860606D40F00400606594F85C10BB
:1006A00010208840304218D021680968090714D505
:1006B000A86020680168490304D50068000308D5D4
:1006C000A16C07E00168C90503D4016821F00801A5
:1006D0000160216C09B12046884794F85C10202005
:1006E0008840304231D021680968C9062DD5A860FC
:1006F00094F8350005282068016806D0490347D5DD
:10070000006800031DD4616C1CE021F0160101603B
:100710002068416921F080014161206C08B9A06C1A
:1007200020B12068016821F00801016094F85C1094
:100730003F208840A86084F8358084F83490216D8B
:100740001FE0E16B09B120468847606D00282BD07F
:10075000606DC00714D0052084F83500206801685A
:1007600021F0010101600098401C0090B84203D8BC
:1007700020680068C007F6D184F8358084F834908A
:10078000E16C002910D001B02046BDE8F0430847D5
:100790000168C905D5D4016821F01001016084F811
:1007A000358084F83490CCE7BDE8F8835000002011
:1007B0002DE9F041044600F09BF906465CB10220A9
:1007C00084F83500002584F834502068016821F051
:1007D000010101600DE00120BDE8F08100F088F921
:1007E000801B052805D920206065032084F835008A
:1007F000F2E720680068C007F0D12268116820483D
:100800000140D4E901031843D4E9033633431843C4
:1008100063691843A3691843E3691843236A1843BB
:100820000843616A042903D1D4E90B13194308432F
:10083000106020684069666A20F0070130460E4368
:10084000012704280CD1A06A0643E06A40B1204683
:10085000FFF706FE20B14020606584F83570BAE7E6
:10086000206846612046FFF7E7FD94F85C203F21B1
:1008700091408160656584F835700020ACE7000028
:100880003F8010F02DE9F0410446866D90F8340069
:10089000002501280DD0012084F8340094F835702B
:1008A0000020012F07D084F8340002252846BDE837
:1008B000F0810220FBE7022784F83570606520464E
:1008C000FFF7F8FD94F85C103F208840B060206886
:1008D000016841F016010160206C20B120680168B8
:1008E00041F0080101602068016841F001010160E8
:1008F000DCE700002DE9F84FDFF8BCA1002201255C
:1009000003264FF00F090AF1040BAAF1040E00BFF1
:100910000B6805FA02F42340A34270D10F7907F067
:100920000307012F01D0022F16D187684FEA420832
:1009300006FA08FC27EA0C07D1F80CC00CFA08FCF0
:100940004CEA070CC0F808C04768A7430C79C4F309
:10095000001494403C4344600C79E443A4070AD05B
:10096000C4684FEA420C06FA0CF7BC438F6807FADA
:100970000CF72743C7600C7904F00304022C12D152
:10098000D40800EB840CDCF820405707FF0E09FA6E
:1009900007F824EA0804D1F8108008FA07F848EAB2
:1009A0000408CCF8208004684FEA420C06FA0CF7E1
:1009B000BC430F7907F0030707FA0CF727430760DA
:1009C0004C6814F4403F70D03C4C276847F4804793
:1009D0002760246822F0030704F480440094384C14
:1009E00007EB040CDCF8084897074FEA177809FA78
:1009F00008F7BC43334FB84202D1002724E054E04B
:100A0000314FB84201D101271EE0304FB84201D129
:100A1000022719E02E4FB84201D1032714E02D4FD1
:100A2000B84201D104270FE02B4FB84201D105276E
:100A30000AE02A4FB84201D1062705E0284FB84204
:100A400001D1072700E0082707FA08F72743CCF869
:100A50000878DAF800405746D1F804C09C435FEAB2
:100A6000CC2C00D51C433C60DBF800405F46D1F83D
:100A700004C09C435FEA8C2C00D51C433C60DEF82C
:100A800000407746D1F804C09C435FEA8C3C00D517
:100A90001C433C60084F083F3C68D1F804C09C43AD
:100AA0005FEACC3C00D51C433C60521C102AFFF48A
:100AB0002FAFBDE8F88F0000083C014044380240E9
:100AC00000300140000002400004024000080240E3
:100AD000000C0240001002400014024000180240C6
:100AE000001C02400AB1816170470904FBE7000065
:100AF0000148806870470000440000200248816877
:100B00000278114481607047440000200B4810B502
:100B1000016841F400710160016841F48061016085
:100B2000016841F480710160032000F06FF80F202C
:100B300000F006F800F024F8002010BD003C024050
:100B400070B50D4D04464FF47A712878B1FBF0F082
:100B50000A490968B1FBF0F000F00AFB48B9102C13
:100B600007D200222146501E00F030F800206C60B1
:100B700070BD012070BD0000440000205000002026
:100B80000A4808B5016841F480410160006800F43A
:100B9000804000900548001F016841F080510160CD
:100BA000006800F08050009008BD0000443802400A
:100BB000002809DB00F01F0201219140400980005C
:100BC00000F1E020C0F8001170470000F0B40E4BB7
:100BD0001B680C46C3F30223C3F10705042D00D99B
:100BE0000425191D072901D2002300E0DB1E012680
:100BF00006FA05F1491E214099409E40761E164096
:100C00003143F0BC02F025B90CED00E0064900F0DC
:100C1000070208684FF6FF03184040EA0220034A23
:100C200010430860704700000CED00E00000FA057A
:100C30002DE9F0470E46050065D0DFF81481D8F89D
:100C40000000F7B200F00700B04207D288F8007049
:100C5000D8F8000000F00700B04254D128683D4C9D
:100C6000810712D5400703D5206840F4E05020608A
:100C70002878000703D5206840F460402060206891
:100C8000A96820F0F000084320602878C0072DD024
:100C9000304968680839012812D0022813D0032887
:100CA00011D00968890700292DDA216821F0030194
:100CB00001432160FFF71CFF814641F2883A0EE0B4
:100CC00009688903EFE709688901ECE7FFF710FF7E
:100CD000A0EB0901514502D90320BDE8F087206847
:100CE000696800F00C00B0EB810FEFD1D8F800106C
:100CF000404601F00701B14207D90770006800F0D3
:100D00000700B04201D00120E7E72878400705D569
:100D10002068E96820F4E050084320602878000744
:100D200006D52068296920F4604040EAC1002060AF
:100D300000F038F82168084AC1F30311515CC8403B
:100D40000649086006480068FFF7FAFE0020C4E77D
:100D5000003C0240083802403440000850000020A7
:100D6000480000200448054900680968044AC1F3A6
:100D70008221515CC8407047500000200838024072
:100D8000444000080448054900680968044AC1F362
:100D90004231515CC8407047500000200838024082
:100DA00044400008154810B5006810F00C021448C3
:100DB00013D04110042A0FD0082A0ED10F4C241F43
:100DC0002268236802F03F025B0207D52068C0F367
:100DD0008810A0FB010106E0084610BD2168C1F3A0
:100DE0008811A1FB00010023FFF73EFA2168C1F33F
:100DF0000141491C4900B0FBF1F010BD0838024028
:100E00000024F4002DE9F84F04006ED02078DFF8BC
:100E10004C93C007A9F104054AD009F10400016808
:100E2000C1F38101012908D00068C0F381000228C4
:100E30000AD1D9F80000400206D52868800337D5CA
:100E400060680028E1D033E06068B0F5803F10D0E2
:100E5000B0F5A02F286810D020F4803028602868D2
:100E600020F4802028606068A8B1FFF741FE0646A4
:100E70000DE0286840F48030F4E740F480202860DA
:100E8000F7E700BFFFF734FE801B642873D828689B
:100E90008003F7D50CE0FFF72BFE064605E000BF08
:100EA000FFF726FE801B6428F0D828688003F7D45B
:100EB0002078DFF8AC8280074FF0000A3ED5A748C3
:100EC000001D016811F00C0F08D00068C0F381000C
:100ED00002280BD1D9F80000400207D42868800707
:100EE00016D5E068012800D112E033E1E068B8B11E
:100EF0000120C8F80000FFF7FBFD064605E000BF33
:100F0000FFF7F6FD801B0228C0D828688007F7D5B8
:100F10002868216920F0F80040EAC10028600DE04F
:100F2000C8F800A0FFF7E4FD064604E0FFF7E0FD87
:100F3000801B02281FD828688007F7D42078000774
:100F400022D5864F87486169703771B101210160F0
:100F5000FFF7CEFD064604E0FFF7CAFD801B02281E
:100F600009D838688007F7D50EE0C0F800A0FFF771
:100F7000BFFD064605E082E0FFF7BAFD801B0228B0
:100F80007DD838688007F7D42078400768D5DFF827
:100F9000CCB100270BF13C0BDBF80000C0000BD4F8
:100FA000DBF8001041F08051CBF80010DBF80000B6
:100FB000012700F0805000906B4E3068C00510D4BF
:100FC000306840F480703060FFF792FD009005E0DB
:100FD000FFF78EFD0099401A022850D83068C005EE
:100FE000F6D55E4EA0686C3601280FD00528306813
:100FF00010D020F001003060306820F00400306034
:10100000A068B8B1FFF774FD00900FE0306840F0C1
:101010000100F4E740F004003060F7E7FFF768FDF7
:101020000099411A41F28830814266D830688007C1
:10103000F4D50EE0FFF75CFD009007E0FFF758FDE8
:101040000099411A41F28830814256D830688007B1
:10105000F4D42FB1DBF8001021F08051CBF8001050
:10106000A069C8B33D49091D0968C1F3810102297E
:101070004AD00228504607D0C8F8600000E03CE0A3
:10108000FFF736FD04463BE04746C8F86000FFF72F
:101090002FFD064605E000BFFFF72AFD801B022852
:1010A0002BD828688001F7D4D4E907010843A16A46
:1010B0002E4A490802EB0141626A41EA8211084363
:1010C00094F82C1040EA0161C9F80010012038663C
:1010D000FFF70EFD044606E03EE000BFFFF708FD07
:1010E000001B022809D828688001F7D534E000BF2A
:1010F000FFF7FEFC001B022802D90320BDE8F88F91
:1011000028688001F4D427E00128F7D0D9F800003E
:10111000E26900F4800191421CD1226A00F03F0193
:10112000914217D147F6C071626A0140B1EB821F4C
:1011300010D1A26A4FF0FF3300F4403103EB5202AA
:10114000B1EB024F06D194F82C1000F07060B0EBB8
:10115000016F01D00120D1E70020CFE70438024021
:1011600000004742800E4742007000400000FFFF31
:1011700010B5401EB0F1807F01D3012010BD4FF0AB
:10118000E02460610F21601701F063FE0020A06180
:1011900007202061002010BD7047704710B590F8FF
:1011A0003C20012A22D0012280F83C20CA688C68A9
:1011B00022F4407222434C6822F4806222430C687D
:1011C00022F4006222430C6922F4805222434C69CB
:1011D00022F400522243C969002322F480420A43C8
:1011E00001684A6480F83C30002010BD022010BD28
:1011F00070B590F83C20012A32D0012480F83C40A0
:10120000022280F83D2003685A689D6822F070062B
:101210000A6832435A60134B02689A4214D0B2F102
:10122000804F11D0104B9A420ED0104B9A420BD0E7
:101230000F4B9A4208D00F4B9A4205D00E4B9A4260
:1012400002D00E4B9A4204D1496825F0800319431D
:10125000916080F83D40002180F83C10084670BD48
:10126000022070BD00000140000400400008004062
:10127000000C004000040140004001400018004004
:1012800010B5040003D094F83D0010B107E0012030
:1012900010BD002084F83C00204600F01FF802201A
:1012A00084F83D00211D206801F01CFA012084F81B
:1012B000460084F83E0084F83F0084F8400084F83B
:1012C000410084F8420084F8430084F8440084F824
:1012D000450084F83D00002010BD000008B50168FD
:1012E000274881420FD12748016841F00101016080
:1012F0000068002200F00100009011461B20FFF75B
:1013000065FC1B2036E01F481F4A001F91420ED18A
:10131000016841F0040101600068002200F004004F
:10132000009011461E20FFF751FC1E2022E0174AB4
:1013300091420ED1016841F008010160006800226D
:1013400000F00800009011463220FFF73FFC3220E9
:1013500010E00F4A914211D1016841F01001016083
:101360000068002200F01000009001213620FFF7F5
:101370002DFC3620BDE80840FFF71ABC08BD000070
:10138000000001404438024000080040000C0040CA
:101390000010004090F83D10012901D00120704755
:1013A000022180F83D100168CA6842F00102CA605B
:1013B00000681149884214D0B0F1804F11D00F4914
:1013C00088420ED00E4988420BD00E49884208D080
:1013D0000D49884205D00D49884202D00C49884207
:1013E00004D1816801F00701062903D0016841F0AA
:1013F000010101600020704700000140000400402E
:1014000000080040000C0040000401400040014082
:101410000018004070B5044690F83C0000250128F3
:1014200017D0012684F83C60022084F83D00206833
:10143000826822F0770222F47F4282600868502896
:1014400038D00DDC20284FD005DC90B3102811D106
:101450004AE0022070BD302846D040280AD13BE047
:1014600060282FD070280DD0B0F5805F03D0B0F584
:10147000005F12D0012584F83D60002084F83C0014
:10148000284670BDCB68D1E90121206801F09BF9A5
:101490002068816841F0770109E0CB68D1E901213A
:1014A000206801F090F92068816841F480418160F2
:1014B000E1E719E0CA684968206801F059FA50214B
:1014C000206806E0CA684968206801F062FA602175
:1014D000206801F082F9CEE7CA684968206801F007
:1014E00047FA40212068F4E7226801461046F0E7F9
:1014F0002DE9F0410D46040003D094F83D0018B1E9
:1015000008E00120BDE8F081002084F83C0020467E
:1015100000F040F8022084F83D002068816844F221
:10152000070291438160211D206801F0DBF82268E9
:1015300090689169166A2B68AF69034340F20330E3
:10154000814341EA0721A868EF6908434FF6FC414F
:101550008843E96840EA0720014328692F6A0001AF
:1015600040EA0730084369686D6926F0AA0646EA32
:101570000515294393602268906154F8460B016277
:10158000012004F81F09E0752076E0762077A07529
:101590000020B7E770B586B0044614216846FEF710
:1015A000DAFE324923680024304A103902253048D7
:1015B000B3F1804F26D02F4EB34221D1136843F0B0
:1015C00002031360126802F0020205920A6842F0F8
:1015D00001020A60096801F001010591C021009132
:1015E000CDE901546946CDE90345FFF783F90022AF
:1015F00011461D20FFF7EAFA5FF01D00FFF7D8FA49
:1016000006B070BD136843F001031360126802F066
:10161000010205920A6842F001020A600A6802F0BB
:10162000010205920A6842F002020A600968012676
:1016300001F00201059120210091CDE90154CDE98D
:1016400003466946FFF756F908200090CDE901549A
:10165000CDE9034669460848FFF74CF900221146D8
:101660001C20FFF7B3FA1C20C8E7000040380240F6
:1016700000000240000400400004024070B590F8F1
:101680003E60044690F83F5090F8423090F8432076
:10169000022021B104290ED0012E1BD114E0012E0D
:1016A00018D1012B16D184F83E0084F842000122A3
:1016B0000021206820E0012D0CD1012A0AD184F8F4
:1016C0003F0084F8430014E0012D03D1012B01D128
:1016D000012A01D0012070BD84F83E0084F83F004B
:1016E00084F8420084F8430001220021206801F0C0
:1016F0005DF801220421206801F058F82068016893
:1017000041F001010160002070BD704770B50446D2
:10171000006801694FF00005C943890715D4C16805
:10172000C943890711D4E91E01610120207720688F
:1017300080698007204602D0FFF7E7FF04E000F051
:10174000F5F8204600F087F9257720680169C9433C
:10175000490717D4C168C943490713D46FF004017E
:101760000161022020772068806910F4407F2046C4
:1017700002D0FFF7CAFF04E000F0D8F8204600F0DE
:101780006AF9257720680169C943090716D4C16839
:10179000C943090712D46FF00801016104202077C2
:1017A0002068C0698007204602D0FFF7AEFF04E042
:1017B00000F0BCF8204600F04EF92577206801695A
:1017C000C943C90617D4C168C943C90613D46FF009
:1017D00010010161082020772068C06910F4407F63
:1017E000204602D0FFF791FF04E000F09FF820466A
:1017F00000F031F9257720680169C943C90708D18C
:10180000C168C943C90704D1891E0161204600F09F
:1018100087F920680169C943090609D4C168C94329
:10182000090605D46FF0800101612046FFF7B4FC82
:1018300020680169C943490609D4C168C9434906FA
:1018400005D46FF040010161204600F0E5F9206801
:101850000169C94389060BD4C168C943890607D405
:101860006FF0200101612046BDE87040FFF795BC94
:1018700070BD000010B586B0044614216846FEF71E
:101880006AFD2368224C002122480222A34212D181
:10189000036843F010030360006800F01000059037
:1018A0004FF420600090CDE901210120CDE9031023
:1018B0006946194813E0194CA34214D1036843F058
:1018C00008030360006800F0080005904FF47040C2
:1018D0000090CDE90121CDE9031269461048FFF7D8
:1018E00009F806B010BD0F4CA342FAD1036843F0CB
:1018F00001030360006800F00100059003200090E0
:10190000CDE90121CDE9031269460748E7E7000068
:101910000000014030380240001002400008004042
:10192000000C0240000C004000000240704770B5FF
:10193000044690F83C0000260D4601280FD00120F7
:1019400084F83C006AB1042A1DD0082A2FD00C2A42
:101950003FD00126002084F83C00304670BD0220B4
:1019600070BD206800F042FF2068816941F00801E5
:1019700081612068816921F00401816120688169A9
:101980002A69114311E0206800F060FF2068816936
:1019900041F4006181612068816921F48061816185
:1019A000206881692A6941EA02218161D2E72068C1
:1019B00000F082FF2068C16941F00801C161206820
:1019C000C16921F00401C1612068C1692A6911431C
:1019D00011E0206800F0A4FF2068C16941F40061B3
:1019E000C1612068C16921F48061C1612068C16959
:1019F0002A6941EA0221C161ACE710B5040003D0B5
:101A000094F83D0010B107E0012010BD002084F8DB
:101A10003C00204600F01EF8022084F83D00211D05
:101A2000206800F05FFE012084F8460084F83E0044
:101A300084F83F0084F8400084F8410084F84200B4
:101A400084F8430084F8440084F8450084F83D009D
:101A5000002010BD7047704710B50446022249B1FE
:101A600004290ED0082913D094F84100012816D07B
:101A7000012010BD94F83E000128F9D184F83E20E1
:101A80000FE094F83F000128F2D184F83F2008E0ED
:101A900094F840000128EBD184F8402001E084F85C
:101AA00041200122206800F081FE16492068164A74
:101AB000884201D0904203D1436C43F40043436415
:101AC0002068884213D0B0F1804F10D00F4988426F
:101AD0000DD00F4988420AD00E49884207D0904263
:101AE00005D00D49884202D00C49884204D1816852
:101AF00001F00701062903D0016841F001010160EE
:101B0000002010BD0000014000040140000400401E
:101B100000080040000C0040004001400018004058
:101B200070B531492DED068B0068884259D100F01F
:101B3000CBFC2E4E306000F0C0FC2D492D4C0546EC
:101B40000860A06801F02FFF9FED2B9B53EC192B31
:101B500001F054FF41EC180B284601F024FF9FEDE3
:101B600028AB53EC1A2B01F049FF53EC182B01F072
:101B7000EDFC01F0B9FC08EE100A234880ED008A64
:101B8000A560E06801F00FFF53EC192B01F036FF60
:101B900041EC190B3068064601F005FF53EC1A2B97
:101BA00001F02CFF53EC192B01F0D0FC01F09CFC50
:101BB000164DF0EE480A28601548E66090ED000AE0
:101BC000FEF790FC01F0F0FA1248D5ED000A90ED16
:101BD000000AFEF787FCBDEC068BBDE8704001F003
:101BE00049BBBDEC068B70BD001000401800002002
:101BF00020000020340000209A9999999999C93FB2
:101C00009A9999999999E93F240000201C00002095
:101C10002C00002030000020704770477047000003
:101C2000F8B5016804460868CA684B6910F00F0FE0
:101C30004FF0000559D003F0010602F490773743C6
:101C400065D0C10705D0D10503D5216C41F0010154
:101C50002164410705D5D90703D0216C41F0020169
:101C60002164810705D5D90703D0216C41F0040117
:101C70002164010707D502F02001314303D0216C14
:101C800041F008012164216C00293AD0800604D576
:101C9000900602D5204600F03EFF20684069216C86
:101CA000C0F38010090700D460B3204600F0FEFEA8
:101CB00020684069400621D52068143050E8001F94
:101CC00021F0400140E80012002AF5D1A06BA8B134
:101CD0006C490165A06BFEF788FC002811D0A06B51
:101CE000016D01B0BDE8F040084783060FD59306AB
:101CF0000DD52046BDE8F84000F00DBF2046FFF7A7
:101D00008DFFF8BD2046FFF789FF2564F8BD266BDF
:101D10002023012E79D1C60677D5D60675D5086859
:101D2000486800904869400640D5A16B0868406843
:101D30000004000CEAD0A28D8242E7D9E085C86990
:101D4000B0F5807F2DD020680C3050E8001F21F4C2
:101D5000807140E80012002AF5D12068143050E864
:101D6000001F21F0010140E80012002AF5D120688F
:101D7000143050E8001F21F0400140E80012002A12
:101D8000F5D184F83E30256320680C3050E8001F00
:101D900021F0100140E80012002AF5D1A06BFEF7F7
:101DA000DBFBA08DE18D401A81B229E0A08DE18D91
:101DB000401A81B2E08D0028A8D00029A6D0206862
:101DC0000C3050E8002F22F4907240E80026002EDC
:101DD000F5D12068143050E8002F22F0010240E8CD
:101DE0000026002EF5D184F83E30256320680C30A3
:101DF00050E8002F22F0100240E80023002BF5D11C
:101E00002046FFF70AFFF8BDFFE705062BD51506AC
:101E100029D594F83D002128F5D1A068B0F5805F60
:101E200001D12069B0B1206A411C2162216800788B
:101E30004860E08C401E0004000CE084E3D1206880
:101E4000C16821F08001C1602068C16841F0400193
:101E5000C160D8E7206A0088C0F308004860206AA3
:101E6000801C2062E5E74006CDD55006CBD5CA6878
:101E7000204622F04002CA6084F83D3000F0C1F8EC
:101E8000C1E70000B729000870B5040004D094F839
:101E90003D00002510B106E0012070BD84F83C50E3
:101EA000204600F023F8242084F83D002068C16813
:101EB00021F40051C160204600F08EFE20680169C7
:101EC00021F4904101612068416921F02A014161BA
:101ED0002068C16841F40051C1602564202084F865
:101EE0003D0084F83E00002070BD00002DE9F04365
:101EF00087B0064614216846FEF72DFA304930684F
:101F000088425AD12F480025016841F02001016024
:101F1000006800F0200005902A481438016841F05C
:101F2000040101600068694600F004000590C020CB
:101F300000900220CDE901050320039008200490C1
:101F40002148FEF7D7FC224C20484FF480688705D3
:101F50002060C4E90175C4E9035880156561C4E9CE
:101F600006504FF48039C4E908952046FEF720FC5E
:101F700008B1FEF7B4FAB463A663154C1348603495
:101F80007830E4E802074020A4E82101104844F832
:101F900014596030A561C4E907596562FEF708FC71
:101FA00008B1FEF79CFA7463002202214720A66361
:101FB000FEF70CFE4720FEF7FBFD07B0BDE8F083FF
:101FC00000140140443802400008024028640240E6
:101FD0007C02002090F83E30202B0ED159B152B136
:101FE00090F83C30012B08D0012380F83C300023CE
:101FF000036300F077BE01207047022070477047EE
:1020000070477047FEE700000D4808B5016841F4CD
:10201000800101600068002200F4800000901146F9
:102020003920FEF7D3FD3920FEF7C2FD002211460C
:102030004520FEF7CBFDBDE808404520FEF7B8BDC2
:1020400030380240F0B587B014216846FEF783F9B6
:102050002948016841F080010160016801F08001B8
:102060000591016841F001010160016801F0010181
:102070000591016841F004010160016801F004016B
:102080000591016841F010010160016801F0100143
:102090000591016841F008010160016801F0080143
:1020A0000591016841F0020101600068134E00F0E3
:1020B00002000590002218213046FEF713FD104F54
:1020C000002230213846FEF70DFD18200090012532
:1020D0000224CDE90154694630460394FEF70AFC18
:1020E00030200090CDE90154694638460394FEF74C
:1020F00001FC07B0F0BD0000303802400000024093
:102100000008024010B596B000240F94109411946A
:10211000129413941C2168461494FEF71CF9202194
:1021200007A8FEF718F92C482A49016040F2CF2190
:10213000C0E901146321C0E9031444618461FFF71D
:102140009FF808B1FEF7CBF94FF480500F900FA91C
:102150002148FFF75FF908B1FEF7C1F91E48FFF704
:102160004CFC08B1FEF7BBF9139413A91A48149458
:10217000FFF73EF808B1FEF7B2F96020CDE90004A0
:10218000029403940494059400226946124806942C
:10219000FFF7CDFB08B1FEF7A2F9042269460E480D
:1021A000FFF7C5FB08B1FEF79AF907940894099464
:1021B0004FF400500A94CDE90B4007A906480E944D
:1021C000FEF7ECFF08B1FEF78AF90348FFF752FB70
:1021D00016B010BD000001408800002010B58CB082
:1021E00024216846FEF7B7F80024144809944FF0FC
:1021F00080410A94C0E90014611EC0E902410461F3
:1022000084610120CDE90004CDE902040494CDE904
:1022100005400794694609480894FFF769F908B131
:10222000FEF75DF9099409A904480A94FEF7E0FF56
:10223000002801D0FEF753F90CB010BDD0000020EB
:1022400010B58CB024216846FEF785F800241548A7
:10225000099413490A94C0E900144FF6FF71C0E9CC
:102260000241046184610120CDE90004CDE902044A
:102270000494CDE90540079469460A480894FFF79D
:1022800037F908B1FEF72BF9099409A905480A9412
:10229000FEF7AEFF002801D0FEF721F90CB010BD0B
:1022A000000400401801002010B58EB000240794EF
:1022B000089409940A940B941C2168460C94FEF728
:1022C0004AF82B482949016041F61F41C0E9011431
:1022D000C721C0E9031480218161FEF7D1FF08B155
:1022E000FEF7FDF84FF48050079007A92048FFF74C
:1022F00091F808B1FEF7F3F81D48FFF77EFB08B12F
:10230000FEF7EDF80B940BA919480C94FEF770FF3B
:1023100008B1FEF7E4F86020CDE900040294002241
:10232000694613480494FFF702FB08B1FEF7D7F89B
:10233000042269460E48FFF7FAFA08B1FEF7CFF813
:10234000082269460A48FFF7F2FA08B1FEF7C7F813
:102350000C2269460648FFF7EAFA08B1FEF7BFF813
:102360000348FFF787FA0EB010BD000000080040D8
:102370006001002010B58EB00024079408940994E1
:102380000A940B941C2168460C94FDF7E4FF234843
:102390002149016041F61F41C0E90114C721C0E98C
:1023A000031480218161FEF76BFF08B1FEF797F8F7
:1023B0004FF48050079007A91848FFF72BF808B191
:1023C000FEF78DF81548FFF718FB08B1FEF787F800
:1023D0000B940BA911480C94FEF70AFF08B1FEF705
:1023E0007EF86020CDE900040294002269460B4883
:1023F0000494FFF79CFA08B1FEF771F804226946CD
:102400000648FFF794FA08B1FEF769F80348FFF7AA
:1024100031FA0EB010BD0000000C0040A8010020F1
:102420001CB500240E4800940C490194016041F64B
:102430001F41C0E9011463218461C160FEF720FFE0
:1024400008B1FEF74CF80094694605480194FEF780
:10245000CFFE002801D0FEF742F81CBD001000405E
:10246000F001002010B5114C0F480C2120604FF4F2
:10247000E13060600020A060E060C4E90401A06178
:10248000E0612046FFF700FD08B1FEF728F820685C
:10249000C16841F01001C160BDE81040C822044984
:1024A0000248FFF797BD00000014014038020020E9
:1024B00054000020FEE7FEE770474FF08041486A75
:1024C000002200B24A62704702490868002200B246
:1024D0000A607047240400407047000038B50021AE
:1024E0002148FFF7B9FA14240022C82311461E48D8
:1024F000009400F03DF804211B48FFF7ADFAC82313
:10250000002204211848009400F032F808211648EF
:10251000FFF7A2FAC823B42208211348009400F060
:1025200027F80C211048FFF797FAC823B4220C2192
:102530000D48009400F01CF800210C48FFF78CFABD
:10254000C823B42200210948009400F011F80421A6
:102550000648FFF781FAC8230022042103480094AB
:1025600000F006F838BD000060010020A80100203E
:102570002DE9F0411E462DED048B0D4604460A9FC1
:10258000B42A29D87243B2FBF7F05A21B0FBF1F01C
:1025900001F020FA41EC190B384601F01BFA41EC2E
:1025A000180B304601F016FA9FED111B53EC112B5E
:1025B00001F024FA53EC182B01F070F853EC192BAE
:1025C00000F0C4FF01F0C2F980B24DB1042D0AD071
:1025D0002168082D0AD00864BDEC048BBDE8F081A9
:1025E00021684863F8E721688863F5E7C863F3E783
:1025F000000000000000E03FFEF780BA30B593B065
:1026000030216846FDF7A7FE14210CA8FDF7A3FEB4
:102610001C480025016841F080510160006800F00D
:10262000805011901848016841F4804101600068B1
:10263000022400F4804011900120009000040190D9
:102640008001CDE9064008AA0420482182E8130051
:102650000B906846FEF7D6FB08B172B6FEE70CA9F0
:102660000F2081E831004FF48050CDE90F050221A1
:102670000CA8FEF7DDFA002801D072B6FEE713B011
:1026800030BD000040380240007000400248016840
:1026900041F470010160704788ED00E00148FFF7E8
:1026A00035B80000880000200148FFF72FB800006F
:1026B000D00000200148FFF729B8000018010020D1
:1026C0000148FFF723B80000600100200148FFF730
:1026D0001DB80000A80100200148FFF717B800004E
:1026E000F0010020F0B50268254C264D264E274FFC
:1026F000274B4FF0804CA04209D0604507D0A8423C
:1027000005D0B04203D0B84201D0984204D122F0A3
:10271000700E4A6842EA0E02A0421BD0604519D0F2
:10272000A84217D0B04215D0B84213D0984211D069
:10273000184DA8420ED0184DA8420BD0174DA842F4
:1027400008D0174DA84205D0164DA84202D0164D0C
:10275000A84203D122F44075CA682A434D6922F089
:1027600080022A4302608A68C2620A688262A042CA
:1027700001D0984201D10969016301214161F0BD95
:10278000000001400004004000080040000C004030
:102790000004014000400140004401400048014065
:1027A00000180040001C00400020004010B501F05F
:1027B0001F030121046A99408C430462016A9A4014
:1027C0001143016210BD10B5846842EA032224F46B
:1027D0007F440A432243826010BD826822F0700267
:1027E0000A4342F00701816070470000F0B5026AB9
:1027F00022F001020262036A42688469124E24F0E8
:1028000073050C682C4323F002058B682B430D4D98
:10281000A84201D0B04205D123F00807CB683B4362
:1028200023F00403A84201D0B04205D14D6922F43F
:10283000407215438A692A43426084614968416352
:102840000362F0BD0000014000040140F0B5026ADF
:1028500022F010020262026A436884690D6824F45F
:10286000E64444EA05248D6822F0200242EA05127B
:102870000F4D104EA84201D0B04206D1CF6822F0D1
:10288000800242EA071222F04002A84201D0B04280
:1028900007D14D6923F4406343EA85038D6943EA18
:1028A000850343608461496881630262F0BD000072
:1028B0000000014000040140F0B5026A22F4807279
:1028C0000262026A4368C46922F4007224F073054C
:1028D0000C68124E2C438D6842EA05220E4DA84228
:1028E00001D0B04206D1CF6822F4006242EA07224A
:1028F00022F48062A84201D0B04207D14D6923F48E
:10290000405343EA05138D6943EA05134360C461EC
:102910004968C1630262F0BD00000140000401404B
:1029200030B5026A22F480520262046A4268C369C6
:102930000D6823F4E64343EA05238D6824F400542C
:1029400044EA0534084DA84202D0084DA84204D1FB
:102950004D6922F4804242EA85124260C3614968AF
:102960000164046230BD0000000001400004014029
:1029700010B5036A046A24F001040462846924F037
:10298000F00444EA021423F00A020A43846102625A
:1029900010BD10B5036A23F0100303628369046A53
:1029A00023F4704343EA023224F0A00343EA011106
:1029B0008261016210BD10B5806B0021C185C184A8
:1029C000FFF72CF910BD70B5846B2068406994F84E
:1029D0003D10C0F3C0100025212904D118B1E584B1
:1029E000204600F08AF82068406994F83E10C0F351
:1029F0008010222904D118B1E585204600F056F850
:102A0000206C40F0100020642046FFF707F970BDED
:102A100010B50146806B09680968C9052FD40021EB
:102A2000C18501680C3151E8002F22F4807241E821
:102A30000023002BF5D10168143151E8002F22F05A
:102A4000010241E80023002BF5D10168143151E85F
:102A5000002F22F0400241E80023002BF5D1202175
:102A600080F83E10016B012909D101680C3151E851
:102A7000002F22F0100241E80023002BF5D1016B5A
:102A8000012902D0FFF7BBFA10BD818DFFF7C5F811
:102A900010BD10B5806B016B012902D0FFF7B0FAB1
:102AA00010BD818D4908FFF7B8F810BD01680C31E1
:102AB00051E8002F22F4907241E80023002BF5D159
:102AC0000168143151E8002F22F0010241E800238F
:102AD000002BF5D1016B012909D101680C3151E8B6
:102AE000002F22F0100241E80023002BF5D1202115
:102AF00080F83E1000210163704701680C3151E8F5
:102B0000002F22F0C00241E80023002BF5D1202144
:102B100080F83D10704708B590F83E10222901D08A
:102B2000022008BD82684FF480539A4201D10169A6
:102B300021B1816A9A421BD04AB10AE00268816AD7
:102B40005268C2F308020A80816A891C08E002699F
:102B500072B10268526802F07F020A70816A491CF1
:102B60008162C18D491E0904090CC18503D019E099
:102B700002685268F1E70168CA6822F02002CA6060
:102B80000168CA6822F48072CA6001684A6922F04A
:102B900001024A61202180F83E10016B012903D017
:102BA000FFF72DFA002008BD0021016301680C31F8
:102BB00051E8002F22F0100241E80023002BF5D14C
:102BC00001680A68D20602D50A6849680091818DB9
:102BD000FFF723F8E6E7000070B5044600680169D6
:102BE000E26821F44051114301612169A068E26962
:102BF00008436169114308432168CA6849F20C63BC
:102C00009A430243CA6020684169A26921F4407175
:102C10001143416131492068884202D030498842DD
:102C200002D1FEF7AFF801E0FEF79CF8E26900235D
:102C3000192164253226B2F5004F626828D0A0FB26
:102C40000101930F9200FDF70FFB0146B0FBF5F079
:102C50006FF01802504301EB800006EB0010B0FB50
:102C6000F5F000F0F002B1FBF5F002EB0012B1FB61
:102C7000F5F06FF01803584301EB800006EB0010ED
:102C8000B0FBF5F000F00F0021681044886070BDC3
:102C9000A0FB010192185B41FDF7E6FA0146B0FB8B
:102CA000F5F00201B1FBF5F06FF01803584301EBAA
:102CB000800006EBC000B0FBF5F000F0F80002EB7E
:102CC0004002B1FBF5F0584301EB800006EBC00079
:102CD000B0FBF5F000F00700D6E70000001001405F
:102CE0000014014038B581628285002513460446F0
:102CF0000564222084F83E00A26B1C48D063A26BBE
:102D00001B481064A26B1B48D064A06B0A46056583
:102D10002168A06B091DFDF7B5FD206801684068BA
:102D2000009084F83C50206948B120680C3050E88D
:102D3000001F41F4807140E80012002AF5D120689C
:102D4000143050E8001F41F0010140E80012002A51
:102D5000F5D12068143050E8001F41F0400140E8F0
:102D60000012002AF5D1002038BD0000112A000809
:102D7000932A0008C729000838B52E480068016862
:102D8000890603D501684068009032E02A49096845
:102D9000C9062ED501684068284900900868026875
:102DA0004FF03A031403264A046824F00104046037
:102DB00008684468C4F13A04148043600BD408687E
:102DC000026842F4002202600868016841F00101D3
:102DD00001601C480BE01C48026822F400220260DB
:102DE0000868016841F00101016016483A3000F0BE
:102DF000F5FA144812491838891C90ED000ABCEE07
:102E0000C00A10EE102A0A7090ED010ABCEEC00A4A
:102E100010EE102A4A7090ED030ABCEEC00A10EEC4
:102E2000100A88700948FEF77BFEBDE8384001486B
:102E3000FEF7F6BE38020020001401407C0200209C
:102E4000340000205403002028640240F0010020D8
:102E5000FEE70907090E002804DB00F1E02080F8F6
:102E60000014704700F00F0000F1E02080F8141DFE
:102E700070470000F0B510EE100A8E4B8E4F8F4C4D
:102E80001D024FF07E564FF0404C9FED8D2A984228
:102E90002CDC10EE100AA04228D8B5EEC00A10EEC5
:102EA000100AF1EE10FA0EDBA84202DBF0EE042A63
:102EB0001EE010EE100AB04202DBF7EE082A17E01F
:102EC000F6EE002A14E0B84202D8FEEE002A0FE027
:102ED00010EE100A604502D8FFEE082A08E010EE56
:102EE000100AA04202D8F8EE042A01E0F0EE422ACD
:102EF000B6EE001AF0EE081A72EEC13AF5EEC02AEC
:102F000033EEA13ABDEEC33A13EE101A32EE813A17
:102F100033EE214ABDEEC44A14EE100AF1EE10FA67
:102F200002D1B0EE423A01E033EE403AF5EEC02A6B
:102F3000F1EE10FA02D1F0EE422A01E070EE632ABF
:102F400010EE902A9A422CDC10EE902AA24228D849
:102F5000F5EEC00A10EE902AF1EE10FA0EDBAA424E
:102F600002DBB0EE040A1EE010EE902AB24202DB51
:102F7000B7EE080A17E0B6EE000A14E0BA4202D82B
:102F8000BEEE000A0FE010EE902A624502D8BFEEB6
:102F9000080A08E010EE902AA24202D8B8EE040A0D
:102FA00001E0B0EE420A70EE413A30EE011AB5EEA1
:102FB000C00A33EEA14A71EE211ABDEEC44AFDEEFD
:102FC000E11A14EE102A11EE903AF1EE10FA02D145
:102FD000F0EE421A01E071EE601AB5EEC00AF1EEB1
:102FE00010FA01D030EEE32A364CC2EBC20204EBF9
:102FF000820505EB810623EE211A96ED000AC3EB4C
:10300000C30304EB830404EB810620EE010A23EEE4
:10301000023AD6ED000A05EB800562EEA11A03EE36
:10302000200AD5ED000A04EB8004264D22EE822A08
:10303000C43501EEA00AD4ED000A05EB820404EBCE
:10304000810605EB830504EB800402EE200AD6ED31
:10305000000A05EB810660EE810AD6ED002A43EEF8
:10306000220AD4ED002A05EB800441EEA20AD4ED39
:10307000002A154C04EB820202EB810542EE220A83
:10308000D5ED002A04EB830303EB810122EE811AC4
:10309000D1ED002A02EB800103EB800003EE221A3F
:1030A000D1ED002A01EEA21AD0ED001A02EE211A8B
:1030B000F0BD000000004040000080BF000040C0A4
:1030C00000000000E03D0008683F00082DED028B85
:1030D00082B0FDF71BFDFFF791FAFEF7B3FFFEF795
:1030E00093FFFFF7BFF9FFF70DF8FFF777F8FFF74A
:1030F000A7F8FFF7D9F8FFF73DF9FFF791F900F0CE
:1031000039F900F01DF92548FEF744F9FFF7E6F913
:10311000234D02263327B9EE048AF9EE088A2C469D
:103120004FF014082670A77085ED018AC5ED028A5C
:1031300060780A2813D00B2816D014281AD0152826
:103140001DD01E2821D01F284FF0C803CDF80080C5
:1031500020D05A220C211348FFF70AFAE2E7C823CD
:103160000022CDF8008003E0C8235A22CDF8008069
:103170000021F0E7C8230022CDF8008003E0C82337
:103180005A22CDF800800421E5E7C823B422CDF807
:10319000008000E0AA220821DDE70000F001002005
:1031A000280000206001002070B52B482B4A2C49D4
:1031B0002DED028BB0EE408A80ED008A18EE100AE9
:1031C000904202DD9FED278A05E018EE100A884242
:1031D00001D99FED258A254C254DB0EEC80AB5EEE4
:1031E000C00AF1EE10FA0BD8002208212046FDF7A4
:1031F00079FC002210212046FDF774FC002011E02C
:10320000B5EEC08AF1EE10FA10DD00221021204642
:10321000FDF768FC012208212046FDF763FCBCEEA7
:10322000C80A16E0A863BDEC028B70BDB5EEC08A7B
:10323000F1EE10FAF7D2012210212046FDF752FCE0
:10324000002208212046FDF74DFCB1EE480ABCEEF5
:10325000C00A10EE100AE5E70000002000E0DD459E
:1032600000E0DDC500E0DD4500E0DDC50000024016
:103270000000014070B52B482B4A2C492DED028BE4
:10328000B0EE408A80ED008A18EE100A904202DD0E
:103290009FED278A05E018EE100A884201D99FEDBC
:1032A000258A254C254DB0EEC80AB5EEC00AF1EED0
:1032B00010FA0BD8002210212046FDF713FC002243
:1032C00020212046FDF70EFC002011E0B5EEC08A5B
:1032D000F1EE10FA10DD002210212046FDF702FC6D
:1032E000012220212046FDF7FDFBBCEEC80A16E0B6
:1032F0006863BDEC028B70BDB5EEC08AF1EE10FACA
:10330000F7D2012210212046FDF7ECFB00222021FC
:103310002046FDF7E7FBB1EE480ABCEEC00A10EE0E
:10332000100AE5E70000002000E0DD4500E0DDC513
:1033300000E0DD4500E0DDC500080240000001407E
:1033400010B53C210848FEF799F93C210748FEF7E3
:1033500095F900210648FEF77FFBBDE810400421E7
:103360000348FEF779BB0000D000002018010020C0
:1033700088000020154801684A6942F040024A610D
:103380000068C16841F01001C160114801680A6815
:1033900022F001020A6001680A68D207F7D10268C8
:1033A0000C49916002680C49D16002683A311161A0
:1033B00002683021516001680A6842F480220A6084
:1033C0000068016841F00101016070473802002087
:1033D0007C020020041401405403002070B50488CE
:1033E000857861BA090441EA0526C37801221E43A3
:1033F0003949342E20D064BA240444EA05241C43FD
:10340000662C18D1838884795BBA1B04C07943EA9F
:1034100004230343662B0ED100209FED300A48752C
:1034200081ED000A81ED010A9FED2D0A81ED030A6D
:10343000086108758A7570BD838884795BBA1B043E
:1034400043EA0423C4792343432BF4D14A75038907
:10345000847A5BBA1B0443EA0423C47A234300EE54
:10346000103AF8EEC01AC1ED001A8389847B5BBA6A
:103470001B0443EA0423C47B234300EE103AB8EE56
:10348000C01A81ED011A038A847C5BBA1B0443EAEB
:103490000423C47C234300EE103AF8EEC00A9FEDEB
:1034A000110AC1ED030A81EE802A838A847D5BBA0A
:1034B0001B0443EA0423C47D23430B61007E08758B
:1034C0008A75C1EE001A81ED002A80EE801AC1EDE6
:1034D000011A81ED031A70BD3C0300200000344343
:1034E0000000000000401C4621F00042A2F16052A2
:1034F000B2F5801F01F0004328BFD2F17F6C0BD9D9
:103500005FEA001C43EAC20242EB507018BF7047EA
:1035100028BF20F001007047B2F5801FBCBF1846DD
:1035200070474FEA410C1CF5001F02D2084600F01C
:1035300052BC70B500F00CFB00000089FFF7F6BF2D
:103540004FF00040A0F580007047000010B591EAF0
:10355000030F48BF83F0004300F15683841A71EBD8
:10356000030C05D2121943EB0C03001B61EB0C0199
:10357000DFF824E14FEA1154A4EB135C1EEA430F79
:1035800018BF9EEA445F73D023EA0E03DCF1200EDD
:1035900021EA045143F4801332D322FA0CFE10EBDB
:1035A0000E0023FA0CFE41EB0E01CCF1200E03FAC3
:1035B0000EFE10EB0E0051F10001B1F5801FCCF1B1
:1035C000200E32D201EB045112FA0EF2BDE8104087
:1035D00058BF7047401C38BF5FEA420218BF7047AF
:1035E000002814BF20F0010041F100014FEA41031F
:1035F00013F5001F38BF7047A1F1C04100F0F6BAC3
:10360000012A43EB0302ACF1200CDCF11F0E32BFA8
:103610004FF0000E23FA0CF310EB030041EB0451C2
:10362000B4EB115FD0D0A1EB045101F58011490832
:103630005FEA300001EB04510ED350F1000038BFB7
:1036400012FA0EFE08D1BDE81040C9E7401C38BF91
:103650005FEA4202CAD1C3E7BDE810404FEA410326
:1036600013F5001F38BF7047A1F1C04100F0BEBA8A
:103670009EEA445F08D011EA5E0FBDE8104004BF27
:1036800001F0004100207047BDE8104070B500F027
:103690005FFA00BF64FBBE3E0000E0FF2DE9C041C1
:1036A00030B4DFF8A0C23CEA111418BF3CEA13148E
:1036B00000F0EC8081EA03051CEA111444EAD57499
:1036C00018BF1CEA131500F0C780A4EB05044FF0E7
:1036D000004545EAC12145EAC32341EA505143EA86
:1036E000525304F17F74994204F500344FEAC0202C
:1036F0004FEAC22208BF904200F09C804FEA136557
:103700000FF24016765D4FEA134506FB05F7C7F149
:10371000807706FB07F74FEAD737A7FB03687642A7
:10372000C8F58038A7FB06CE38BFA8F1010807FB13
:1037300008E64FF0000EA6FB028CE6FB03CEDCF1A0
:10374000000CCEF1004E38BFAEF1010EA6FB0C58B6
:103750004FF000074FF00005E6FB0E87A1FB08C6FF
:10376000A0FB07CE16EB0E0645F10005E1FB076551
:1037700015F1E04E7EBFA4F580345FEA46066D4148
:1037800016F1800745F100054FEA17274FEA066654
:1037900047EA0567A6F1DE46B6F1805F4FEA1525D8
:1037A0001FD9384624F0010C05EBC471BCF1FE6F43
:1037B00001EB0C1102D8F0BCBDE8008124425CBFD3
:1037C00001F5801E9EEAC47F02D4F0BCBDE80081F2
:1037D000244238D4F0BCA1F1C041BDE8004100F062
:1037E00005BA4FEAD22242EA43524FEAD323A7FB5B
:1037F00002864FEAD02040EA415007FB03661EEAEA
:103800000E0F4FEAD12105FB026658BFA6EB00560A
:10381000B6EB00564FEA520E4EEAC37E18EB0E0E80
:1038200056EB530EBDD518EB02085E417F1C55F1D7
:103830000005B6E74FF480154FF000074FF0000683
:103840004FF00008ADE7F0BC4FF0000001F1C041BF
:1038500001F00041BDE8008111EA0C1F0CEA1315CC
:1038600000D00CE013EA0C1F00F025804FF00000A0
:10387000F0BC81EA030101F00041BDE80081F0BC29
:10388000BDE8004181EA030100F0B0B9F0BCBDE839
:10389000004170B500F05CF9097EFC3E00F007B80D
:1038A00081EA03014FF0000001F00041704781EA16
:1038B000030100F09BB9F0BCBDE800414FF00000EF
:1038C00021497047FFFDFBF9F7F5F4F2F0EEEDEB5F
:1038D000E9E8E6E4E3E1E0DEDDDBDAD8D7D5D4D30E
:1038E000D1D0CFCDCCCBCAC8C7C6C5C4C2C1C0BF5A
:1038F000BEBDBCBBBAB9B8B7B6B5B4B3B2B1B0AF60
:10390000AEADACABAAA9A8A8A7A6A5A4A3A3A2A143
:10391000A09F9F9E9D9C9C9B9A99999897979695FE
:1039200095949393929191908F8F8E8E8D8C8C8B9A
:103930008B8A898988888787868585848483838222
:10394000828181800000FF070000F87F4FEA115359
:10395000A3F58063D3F11E03A8BFD3F1200C08DBCD
:103960004FF0004242EAC12252EA505232FA03F0CA
:10397000704709420BD4102BC4BF0020704703F5D9
:10398000787CBCF1FF3F05D04FF0FF3070474FF01F
:103990000000704770B500F0DBF800BF499224804A
:1039A00000207047F0E710F0004248BF4042B0FAF4
:1039B00080F310FA03F10AD0C3F11D0303F580630D
:1039C0004FEA415002EB035202EBD12170474FF016
:1039D00000007047B0FA80F310FA03F10AD0C3F187
:1039E0001D0303F580634FEA41504FEA035202EB97
:1039F000D12170474FF0000070470000DFF848C148
:103A000070B51CEA111E1EBF1CEA13159EEA0C0FAE
:103A100095EA0C0F00F06F8081EA030423EA4C134F
:103A20004EEAD47E21EA4C1141F4801143F4801314
:103A3000AE44A1FB024CA0FB0365AEF17F7E3619BC
:103A400055EB0C05A1FB034C4CF10003A0FB021C41
:103A500016EB0C06654153F10003094218BF46F00E
:103A6000010613F4007F0BD14FEA03314FEA053012
:103A7000340341EA155140EA16506FF003020AE0A0
:103A80004FEAC3214FEAC520F40241EA555140EA0A
:103A900056506FF0020202EB2E4201EB025585EA0E
:103AA000CE710AD05FEA440C18BF24F0004450F1F4
:103AB000000041F1000120EAD47040F2FE7C624532
:103AC00000D270BDA84214BF4FF080444FF0404474
:103AD000002E08BF0024BEF1806FA8BFA1F1C04135
:103AE000BDE8704080F282804FF0000001F1C041DB
:103AF00001F0004170479EEA0C0F0CEA131518BF45
:103B000095EA0C0F06D04FF0000081EA030E0EF08C
:103B1000004170BD00F01CF88900013E00F007B8BC
:103B200000F009B84FEA430C5FEA5C5C08D081EA18
:103B3000030100F05BB84FEA410C5FEA5C5CF6D130
:103B40004FF00000014970470000FF070000F87FB8
:103B50000EF1020E2EF0030E5EF8046B364205D411
:103B6000012A43EB030515F5001F12D8012841EB8C
:103B7000010C1CF5001F0CD80ED14FEAD17C15F5B5
:103B8000001F0CEB4C0C0CF1020C08BF4CEBD37C6F
:103B900004E04FF0080C01E04FEAD37C0CEB4C053D
:103BA00026FA05F606F00706B6F1040C06D20EEB6F
:103BB000860CBDE870404CF0010C6047DFE80CF06B
:103BC000090B02024FF000414FF00000A1F5002167
:103BD00070BD19461046012851EB010418BFD4F5F9
:103BE000001484BF002001F0004170BD0808A0F55A
:103BF00000114FEA3101704710B591EA030F48BF39
:103C000083F000433FF5AAAC841A71EB030C07D292
:103C100012198CF0004C43EB0C03001B61EB0C0100
:103C2000DFF8A4E14FEA1154A4EB135C1EEA430F42
:103C300018BF9EEA445F00F0B08023EA6E03524250
:103C400021EA0451C3EB6E0338BF5B1EDCF1200E8A
:103C500025D322FA0CFE10EB0E0043FA0CFE41EBCA
:103C60000E01CCF1200E03FA0EFE10EB0E0051F106
:103C70000001CCF1200E29D412FA0EF201EB04510E
:103C8000BDE8104058BF7047401C1CBFB2F1004F48
:103C9000704700280CBF491C20F00100704712EB50
:103CA000020E43EB030218BF4FF0010E4EEA420230
:103CB000ACF1200CDCF11E0E54D943FA0CFE10EBD3
:103CC0000E0051F1FF31CCF11E0ED5D50EF1010ED3
:103CD00012FA0EFE404141EB010101EB445C5FEA48
:103CE0005C5C10D910EBDE7001EB045138BFBEF103
:103CF000004FBDE8104018BF704700280CBF491C9A
:103D000020F00100704730D24FEAD42C11F5001199
:103D100024F400641BD0B1FA81F20B3AA41AA41E59
:103D2000D2F12003914030FA03F31943904001EBA4
:103D3000CC71002C01EB0451BDE81040A8BF7047C6
:103D400001F1C0414FF0000001F000417047B0FAAE
:103D500080F310FA03F100D110BDE41A173C4805B6
:103D6000C90AE4E701EB045110BD491001EB04510D
:103D7000BDE810404FEA300002E04FF0000170470C
:103D80004A0008BF0042F8D0B2F5001F28BF7047B4
:103D900001F000414FF0000070479EEA445F07D0F9
:103DA00011EA5E0FBDE8104004BF002100207047FB
:103DB000BDE8104070B5FFF7CBFE00BF40DFF63E18
:103DC00083F00041104670470000E0FF4FF0407064
:103DD000E1EE100A7047FF2141EAD050C00570475C
:103DE0000000404000004040000000400000004053
:103DF0000000803F0000803F0000000000004040C5
:103E00000000404000000040000000400000803FF3
:103E10000000000000000000000000400000004022
:103E2000000000400000803F00000000000080BF54
:103E3000000000C0000000400000803F0000803F04
:103E400000000000000080BF000000C0000000C0B3
:103E50000000803F0000803F00000000000080BFA5
:103E6000000080BF000000C0000000C00000000093
:103E700000000000000080BF000000C0000000C083
:103E8000000000C0000040C000000000000080BF33
:103E9000000080BF000000C0000000C0000040C063
:103EA000000040C0000040C0000040C0000040C012
:103EB000000000C0000000C0000000000000000082
:103EC000000040C0000040C0000000C0000000C072
:103ED000000080BF0000000000000000000000C0E3
:103EE000000000C0000080BF000080BF0000000094
:103EF0000000803F0000803F000000C0000080BF45
:103F0000000080BF000000000000803F0000803FF4
:103F100000000040000080BF000080BF00000000E3
:103F20000000803F0000803F000000400000004093
:103F300000000000000000000000803F0000004082
:103F40000000004000004040000040400000000031
:103F5000000000000000803F0000004000004040E2
:103F600000004040000040400000803F0000803FD3
:103F700000000000000000000000000000004040C1
:103F800000004040000080BF000080BF000080BFF4
:103F9000000080BF00000000000080BF0000004063
:103FA000000040C0000040C0000000C0000080BF12
:103FB000000000000000803F00000040000040C002
:103FC000000000C0000000C0000080BF0000000032
:103FD0000000803F00000040000040C0000000C022
:103FE000000080BF000080BF000000000000803F94
:103FF0000000803F000000C0000080BF000080BFC4
:10400000000080BF000000000000803F0000803FF3
:104010000000803F000000000000000000000000E1
:104020000000000000004040000040400006101664
:10403000000610160000000000000000010203044A
:104040000607080900000000010203046C40000894
:104050000000002054000000C4010008C040000817
:1040600054000020D4090000E00100080000000016
:104070000000000000000000000080400000000080
:104080000AD7233C000000000000000000000000F0
:104090000000000000000000000000000000000020
:1040A0000000000000000000000000000000000010
:1040B0000100000010000000000000000024F400D7
:040000050800018965
:00000001FF
